:020000040800F2
:100000000080012049060008590500086105000824
:100010006905000871050008790500080000000066
:100020000000000000000000000000008105000842
:100030008F050008000000009D050008AB050008C2
:100040009906000899060008990600089906000814
:100050009906000899060008990600089906000804
:1000600099060008990600089906000899060008F4
:1000700099060008990600089906000899060008E4
:1000800099060008990600089906000899060008D4
:10009000990600089906000899060008252D000811
:1000A00099060008990600089906000899060008B4
:1000B00099060008990600089906000899060008A4
:1000C0009906000899060008990600089906000894
:1000D00099060008413200089906000899060008B0
:1000E0003D2D0008990600089906000899060008A9
:1000F0009906000899060008990600089906000864
:100100009906000899060008990600089906000853
:100110009906000899060008990600089906000843
:100120009906000899060008990600089906000833
:100130009906000899060008990600089906000823
:100140009906000899060008990600089906000813
:100150009906000899060008990600089906000803
:1001600099060008990600089906000899060008F3
:100170009906000899060008000000000000000031
:08018000990600089906000829
:1001880010B5054C237833B9044B13B10448AFF3C9
:1001980000800123237010BD6800002000000000CB
:1001A800C43D000808B5034B1BB103490348AFF32E
:1001B800008008BD000000006C000020C43D00085D
:1001C80053B94AB9002908BF00281CBF4FF0FF31B6
:1001D8004FF0FF3000F06AB9ADF1080C6DE904CEBC
:1001E80000F006F8DDF804E0DDE9022304B070470A
:1001F8002DE9F047089D0C46002B4ED194468C45BE
:100208008646B2FA82F262D94AB1C2F1200391401D
:1002180020FA03F30CFA02FC194300FA02FE4FEA33
:100228001C471FFA8CF6B1FBF7F44FEA1E4307FB95
:10023800141143EA014304FB06F199420AD91CEB65
:10024800030304F1FF3080F01281994240F20F81DC
:10025800023C6344591A1FFA8EF3B1FBF7F007FB0F
:10026800101143EA014300FB06F69E420AD91CEB33
:10027800030300F1FF3180F0FC809E4240F2F980D8
:10028800634402389B1B40EA044000211DB1D3405F
:100298000022C5E90032BDE8F0878B4205D90DB1CF
:1002A800C5E9000100210846F5E7B3FA83F1002902
:1002B80046D1A34202D39042C0F0F080861A64EB84
:1002C80003030120002DE6D0C5E90063E3E7002A17
:1002D80040F09080A1EB0C044FEA1C481FFA8CF701
:1002E8000121B4FBF8F64FEA1E4308FB164443EA23
:1002F800044307FB06F0984208D91CEB030306F1F8
:10030800FF3402D2984200F2CD8026461C1A1FFA0A
:100318008EF3B4FBF8F008FB104443EA044300FBF7
:1003280007F79F4208D91CEB030300F1FF3402D200
:100338009F4200F2B0802046DB1B40EA0640A5E75A
:10034800C1F120068B4022FA06F71F4320FA06FC6B
:1003580004FA01F343EA0C03F44000FA01F8380CFC
:100368004FEA1349B4FBF0FE1FFA87FC00FB1E445A
:1003780049EA04440EFB0CF9A14502FA01F20AD934
:100388003C190EF1FF3A80F08480A14540F281804B
:10039800AEF1020E3C44A4EB09041FFA83F9B4FB46
:1003A800F0F300FB134449EA044403FB0CFCA445A6
:1003B80007D93C1903F1FF3067D2A44565D9023B40
:1003C8003C4443EA0E40A0FB0293A4EB0C049C427D
:1003D800CE469C4651D34ED055B1B8EB0E0364EBD4
:1003E8000C0404FA06F6CB401E43CC40C5E9006471
:1003F800002150E7C2F1200320FA03F10CFA02FCB5
:1004080024FA03F394400C434FEA1C4800FA02FE16
:100418001FFA8CF7B3FBF8F008FB1031230C43EA02
:10042800014300FB07F1994208D91CEB030300F1D3
:10043800FF362CD299422AD9023863445B1AA4B2F7
:10044800B3FBF8F108FB113344EA034401FB07F35B
:10045800A34208D91CEB040401F1FF3613D2A342CE
:1004680011D902396444E41A41EA004139E70446E3
:10047800F0E6084606E7C845AED2B9EB020E63EBD4
:10048800070C0138A8E73146EDE7034699E73046FF
:10049800D4E7D6467FE7634402384DE7064623464D
:1004A80008460FE7023E634430E700BF704700BFCD
:1004B80080B500AF044803F031F84FF47A7002F0C9
:1004C800C3FB00BF80BD00BFDC3D000880B500AFA6
:1004D80000F0DFF802F0D8FD502002F065FB4FF481
:1004E800E13002F02FFE02F0DDFC02F033FB02F0F7
:1004F80095FC02F0C1FB034802F000FDFFF7D8FFAE
:10050800FCE700BF6001002080B483B000AF0F4B50
:100518001B6E0E4A43F0010313660C4B1B6E03F06F
:1005280001037B607B68094B9B6D084A43F080534D
:100538009365064B9B6D03F080533B603B6800BF9F
:100548000C37BD465DF8047B704700BF00100240C1
:1005580080B400AF00BFFDE780B400AF00BFFDE787
:1005680080B400AF00BFFDE780B400AF00BFFDE777
:1005780080B400AF00BFFDE780B400AF00BFBD4648
:100588005DF8047B704780B400AF00BFBD465DF8DE
:10059800047B704780B400AF00BFBD465DF8047BA4
:1005A800704780B500AF00F0C9F800BF80BD0000FB
:1005B80080B586B000AF7860144A154BD31A7B61BA
:1005C8007B693B61134B1B68002B02D1114B124A0C
:1005D8001A60104B1A687B6813443A699A4207D22A
:1005E80003F07EF903460C221A604FF0FF3309E04E
:1005F800084B1B68FB60074B1A687B681344054A65
:100608001360FB6818461837BD4680BD008001207E
:1006180000040000840000202803002080B400AFFC
:10062800064BD3F88830054A43F47003C2F8883083
:1006380000BFBD465DF8047B704700BF00ED00E0D9
:10064800DFF834D0FFF7EAFF0C480D490D4A0023C4
:1006580002E0D458C4500433C4188C42F9D30A4A6F
:100668000A4C002301E013600432A242FBD303F0DA
:100678003DF9FFF72BFFFEE7008001200000002076
:10068800680000207C3E0008680000202403002049
:10069800FEE780B582B000AF0023FB71032000F0B5
:1006A8003DF90F2000F00EF80346002B02D001237D
:1006B800FB7101E0FFF728FFFB7918460837BD46B4
:1006C80080BD000080B584B000AF78600023FB7364
:1006D800174B1B78002B23D0164B1A68144B1B782A
:1006E80019464FF47A73B3FBF1F3B2FBF3F31846F0
:1006F80000F049F90346002B0FD17B680F2B09D86E
:10070800002279684FF0FF3000F013F90A4A7B683D
:10071800136007E00123FB7304E00123FB7301E08E
:100728000123FB73FB7B18461037BD4680BD00BF15
:1007380008000020000000200400002080B400AF62
:10074800064B1B781A46064B1B681344044A136071
:1007580000BFBD465DF8047B704700BF080000205D
:100768008800002080B400AF034B1B681846BD46C4
:100778005DF8047B704700BF8800002080B485B016
:1007880000AF78607B6803F00703FB600C4BDB6805
:10079800BB60BA684FF6FF031340BB60FB681A02E0
:1007A800BB68134343F0BF6343F40033BB60044AA0
:1007B800BB68D36000BF1437BD465DF8047B704743
:1007C80000ED00E080B400AF044BDB681B0A03F0C7
:1007D80007031846BD465DF8047B704700ED00E04E
:1007E80080B483B000AF0346FB7197F90730002B44
:1007F8000BDBFB7903F01F02074997F907305B0908
:10080800012000FA02F241F8232000BF0C37BD4650
:100818005DF8047B704700BF00E100E080B483B05E
:1008280000AF03463960FB7197F90730002B0ADBEC
:100838003B68DAB20C4997F907301201D2B20B447F
:1008480083F800230AE03B68DAB20849FB7903F031
:100858000F03043B1201D2B20B441A7600BF0C37C7
:10086800BD465DF8047B704700E100E000ED00E064
:1008780080B489B000AFF860B9607A60FB6803F0B3
:100888000703FB61FB69C3F10703042B28BF04239B
:10089800BB61FB690433062B02D9FB69033B00E00B
:1008A80000237B614FF0FF32BB6902FA03F3DA439E
:1008B800BB681A407B699A404FF0FF317B6901FAA7
:1008C80003F3D9437B680B40134318462437BD46CE
:1008D8005DF8047B7047000080B582B000AF786097
:1008E8007B68013BB3F1807F01D301230FE00A4A03
:1008F8007B68013B53600F214FF0FF30FFF78EFFFD
:10090800054B00229A60044B07221A600023184600
:100918000837BD4680BD00BF10E000E080B582B05A
:1009280000AF78607868FFF729FF00BF0837BD4639
:1009380080BD80B586B000AF0346B9607A60FB73AE
:1009480000237B61FFF73EFF78617A68B9687869B0
:10095800FFF78EFF024697F90F3011461846FFF74A
:100968005DFF00BF1837BD4680BD80B582B000AFBF
:100978000346FB7197F907301846FFF731FF00BFB0
:100988000837BD4680BD80B582B000AF7860786812
:10099800FFF7A2FF034618460837BD4680BD000092
:1009A80080B483B000AF78607B68042B06D1094B14
:1009B8001B68084A43F00403136005E0054B1B68F5
:1009C800044A23F00403136000BF0C37BD465DF8EA
:1009D800047B704710E000E080B584B000AF786019
:1009E8000023FB737B6893F82530DBB2022B05D01C
:1009F8007B680422DA630123FB7329E07B681B68A8
:100A08001A687B681B6822F00E021A607B681B68F4
:100A18001A687B681B6822F001021A607B685B6CAD
:100A280003F01C027B681B6C012101FA02F25A6078
:100A38007B68012283F825207B68002283F8242024
:100A48007B689B6B002B03D07B689B6B786898470F
:100A5800FB7B18461037BD4680BD000080B487B0C8
:100A680000AF7860396000237B617FE13B681A68DA
:100A780001217B6901FA03F31340FB60FB68002B3B
:100A880000F071813B685B6803F00303012B05D01C
:100A98003B685B6803F00303022B30D17B689B68DB
:100AA8003B617B695B00032202FA03F3DB433A698B
:100AB80013403B613B68DA687B695B0002FA03F329
:100AC8003A6913433B617B683A699A607B685B6863
:100AD8003B6101227B6902FA03F3DB433A69134065
:100AE8003B613B685B681B0903F001027B6902FA02
:100AF80003F33A6913433B617B683A695A603B6880
:100B08005B6803F00303032B18D17B68DB6A3B6146
:100B180001227B6902FA03F3DB433A6913403B6124
:100B28003B685B68DB0803F001027B6902FA03F3A8
:100B38003A6913433B617B683A69DA623B685B68F0
:100B480003F00303032B17D07B68DB683B617B69E9
:100B58005B00032202FA03F3DB433A6913403B616B
:100B68003B689A687B695B0002FA03F33A691343AE
:100B78003B617B683A69DA603B685B6803F00303B2
:100B8800022B23D17B69DA087B68083253F82230BC
:100B98003B617B6903F007039B000F2202FA03F312
:100BA800DB433A6913403B613B681A697B6903F090
:100BB80007039B0002FA03F33A6913433B617B691D
:100BC800DA087B680832396943F822107B681B68A9
:100BD8003B617B695B00032202FA03F3DB433A695A
:100BE80013403B613B685B6803F003027B695B0071
:100BF80002FA03F33A6913433B617B683A691A6066
:100C08003B685B6803F44033002B00F0AC805F4B1B
:100C18001B6E5E4A43F0010313665C4B1B6E03F0C8
:100C28000103BB60BB685A4A7B699B08023352F8D0
:100C380023303B617B6903F003039B000F2202FA18
:100C480003F3DB433A6913403B617B68B3F1904F90
:100C580025D07B684F4A93421FD07B684E4A934207
:100C680019D07B684D4A934213D07B684C4A934213
:100C78000DD07B684B4A934207D07B684A4A93421F
:100C880001D106230CE007230AE0052308E004232A
:100C980006E0032304E0022302E0012300E000232E
:100CA8007A6902F00302920093403A6913433B6168
:100CB80037497B699B0802333A6941F823203B4B4B
:100CC8009B683B61FB68DB433A6913403B613B68C7
:100CD8005B6803F48013002B03D03A69FB68134365
:100CE8003B61324A3B699360304BDB683B61FB6890
:100CF800DB433A6913403B613B685B6803F40013CC
:100D0800002B03D03A69FB6813433B61274A3B69D0
:100D1800D360264B5B683B61FB68DB433A69134051
:100D28003B613B685B6803F40033002B03D03A69EE
:100D3800FB6813433B611D4A3B6953601B4B1B68AF
:100D48003B61FB68DB433A6913403B613B685B6886
:100D580003F48033002B03D03A69FB6813433B61EB
:100D6800124A3B6913607B6901337B613B681A68EF
:100D78007B6922FA03F3002B7FF478AE00BF00BF33
:100D88001C37BD465DF8047B704700BF0010024069
:100D9800000001400004004800080048000C00481A
:100DA80000100048001400480018004800040140E2
:100DB80080B485B000AF78600B467B807B681A6989
:100DC8007B881340002B02D00123FB7301E0002332
:100DD800FB73FB7B18461437BD465DF8047B7047F0
:100DE80080B483B000AF78600B467B8013467B707D
:100DF8007B78002B03D07A887B689A6102E07A8836
:100E08007B689A6200BF0C37BD465DF8047B70476B
:100E180080B485B000AF78600B467B807B685B69E7
:100E2800FB607A88FB6813401A04FB68D9437B8807
:100E38000B401A437B689A6100BF1437BD465DF8C2
:100E4800047B704780B582B000AF0346FB80084B37
:100E58005A69FB881340002B06D0054AFB8853616A
:100E6800FB88184601F072FF00BF0837BD4680BDF9
:100E78000004014080B400AF044B1B6803F4C06356
:100E88001846BD465DF8047B704700BF00700040FF
:100E980080B485B000AF78607B68B3F5007F30D14F
:100EA800234B1B6803F4C063B3F5007F38D0204B95
:100EB8001B6823F4C0631E4A43F4007313601D4B80
:100EC8001B68322202FB03F31B4AA2FB03239B0C81
:100ED8000133FB6002E0FB68013BFB60144B5B697C
:100EE80003F48063B3F5806F02D1FB68002BF2D165
:100EF8000F4B5B6903F48063B3F5806F10D1032354
:100F08000FE00B4B1B6803F4C063B3F5806F07D089
:100F1800074B1B6823F4C063054A43F480631360DE
:100F2800002318461437BD465DF8047B704700BFA0
:100F3800007000400000002083DE1B4380B588B0AD
:100F480000AF78607B68002B01D10123CAE3974B7F
:100F58009B6803F00C03BB61944BDB6803F003034D
:100F68007B617B681B6803F01003002B00F0E480B2
:100F7800BB69002B07D0BB690C2B40F08B807B69C9
:100F8800012B40F08780894B1B6803F00203002B7C
:100F980005D07B689B69002B01D10123A2E37B6804
:100FA8001A6A824B1B6803F00803002B04D07F4B9E
:100FB8001B6803F0F00305E07C4BD3F894301B0961
:100FC80003F0F003934223D27B681B6A184600F0B3
:100FD80055FD0346002B01D0012383E3734B1B68A7
:100FE800724A43F008031360704B1B6823F0F00249
:100FF8007B681B6A6D4913430B606C4B5B6823F479
:101008007F427B68DB691B02684913434B6025E01C
:10101800664B1B68654A43F008031360634B1B6803
:1010280023F0F0027B681B6A604913430B605F4B37
:101038005B6823F47F427B68DB691B025B491343CF
:101048004B60BB69002B09D17B681B6A184600F00E
:1010580015FD0346002B01D0012343E300F04AFCB1
:101068000246524B9B681B0903F00F035049CB5CA7
:1010780003F01F0322FA03F34E4A13604E4B1B681A
:101088001846FFF71FFB0346FB73FB7B002B52D070
:10109800FB7B27E37B689B69002B32D0434B1B68A3
:1010A800424A43F001031360FFF75CFB386108E034
:1010B800FFF758FB02463B69D31A022B01D90323D9
:1010C80010E33A4B1B6803F00203002BF0D0374BB8
:1010D8001B68364A43F008031360344B1B6823F03F
:1010E800F0027B681B6A314913430B602F4B5B6826
:1010F80023F47F427B68DB691B022C4913434B6056
:101108001AE02A4B1B68294A23F001031360FFF7F2
:1011180029FB386108E0FFF725FB02463B69D31A33
:10112800022B01D90323DDE2204B1B6803F00203E5
:10113800002BF0D100E000BF7B681B6803F00103BF
:10114800002B74D0BB69082B05D0BB690C2B0ED1C2
:101158007B69032B0BD1154B1B6803F40033002B61
:1011680064D07B685B68002B60D10123BAE27B689E
:101178005B68B3F5803F06D10C4B1B680B4A43F400
:101188008033136026E07B685B68B3F5A02F15D128
:10119800064B1B68054A43F480231360034B1B6806
:1011A800024A43F48033136014E000BF0010024089
:1011B800243E00080000002004000020A04B1B680B
:1011C8009F4A23F4803313609D4B1B689C4A23F489
:1011D800802313607B685B68002B13D0FFF7C2FA8B
:1011E800386108E0FFF7BEFA02463B69D31A642B60
:1011F80001D9032376E2924B1B6803F40033002BDA
:10120800F0D014E0FFF7AEFA386108E0FFF7AAFA69
:1012180002463B69D31A642B01D9032362E2884B47
:101228001B6803F40033002BF0D100E000BF7B689B
:101238001B6803F00203002B60D0BB69042B05D0A8
:10124800BB690C2B19D17B69022B16D17C4B1B680F
:1012580003F48063002B05D07B68DB68002B01D189
:1012680001233FE2764B5B6823F0F8527B681B69E9
:101278001B06734913434B6040E07B68DB68002B17
:1012880023D06F4B1B686E4A43F480731360FFF7DB
:1012980069FA386108E0FFF765FA02463B69D31A34
:1012A800022B01D903231DE2654B1B6803F48063FD
:1012B800002BF0D0624B5B6823F0F8527B681B6907
:1012C8001B065F4913434B6018E05D4B1B685C4A83
:1012D80023F480731360FFF745FA386108E0FFF7DD
:1012E80041FA02463B69D31A022B01D90323F9E1DB
:1012F800534B1B6803F48063002BF0D17B681B6899
:1013080003F00803002B3CD07B685B69002B1CD0E2
:101318004B4BD3F894304A4A43F00103C2F8943057
:10132800FFF720FA386108E0FFF71CFA02463B692C
:10133800D31A022B01D90323D4E1414BD3F89430BB
:1013480003F00203002BEFD01BE03D4BD3F89430A1
:101358003B4A23F00103C2F89430FFF703FA3861DF
:1013680008E0FFF7FFF902463B69D31A022B01D9BF
:101378000323B7E1324BD3F8943003F00203002B78
:10138800EFD17B681B6803F00403002B00F0A680F4
:101398000023FB772A4B9B6D03F08053002B0DD164
:1013A800274B9B6D264A43F080539365244B9B6DD6
:1013B80003F08053BB60BB680123FB77214B1B689C
:1013C80003F48073002B18D11E4B1B681D4A43F48D
:1013D80080731360FFF7C6F9386108E0FFF7C2F9B8
:1013E80002463B69D31A022B01D903237AE1154B34
:1013F8001B6803F48073002BF0D07B689B68012B7B
:1014080008D10F4BD3F890300D4A43F00103C2F8CE
:10141800903029E07B689B68052B15D1084BD3F8E1
:101428009030074A43F00403C2F89030044BD3F8D5
:101438009030034A43F00103C2F8903014E000BF33
:1014480000100240007000409C4BD3F890309B4A3B
:1014580023F00103C2F89030984BD3F89030974AA4
:1014680023F00403C2F890307B689B68002B16D0E9
:10147800FFF778F938610AE0FFF774F902463B692B
:10148800D31A41F28832934201D903232AE18B4BC4
:10149800D3F8903003F00203002BEDD015E0FFF7EE
:1014A80061F938610AE0FFF75DF902463B69D31A32
:1014B80041F28832934201D9032313E17F4BD3F8D9
:1014C800903003F00203002BEDD1FB7F012B05D1F7
:1014D8007A4B9B6D794A23F0805393657B689B6AAE
:1014E800002B00F0FE807B689B6A022B40F0D080C6
:1014F800724BDB687B617B6903F003027B68DB6A04
:101508009A4230D17B6903F070027B681B6B013B08
:101518001B019A4227D17B6903F4FE427B685B6B0F
:101528001B029A421FD17B6903F400337A68926BDD
:10153800072A14BF01220022D2B2934213D17B6939
:1015480003F4C0027B68DB6B5B08013B5B059A42D6
:1015580009D17B6903F0C0627B681B6C5B08013BA7
:101568005B069A426ED0BB690C2B69D0534B1B6843
:1015780003F08063002B05D1504B1B6803F08053A8
:10158800002B01D00123ADE04C4B1B684B4A23F0E4
:1015980080731360FFF7E6F8386108E0FFF7E2F8B8
:1015A80002463B69D31A022B01D903239AE0434B25
:1015B8001B6803F00073002BF0D1404BDA68404BF6
:1015C80013407A68D16A7A68126B013A12011143A2
:1015D8007A68526B120211437A68D26B5208013A48
:1015E800520511437A68126C5208013A52061143A7
:1015F8007A68926B120952040A4330491343CB604C
:101608002E4B1B682D4A43F0807313602B4BDB680D
:101618002A4A43F08073D360FFF7A4F8386108E0E2
:10162800FFF7A0F802463B69D31A022B01D903231E
:1016380058E0224B1B6803F00073002BF0D050E0F9
:1016480001234FE01D4B1B6803F00073002B48D1AA
:101658001A4B1B68194A43F080731360174BDB68F9
:10166800164A43F08073D360FFF77CF8386108E0CE
:10167800FFF778F802463B69D31A022B01D90323F6
:1016880030E00E4B1B6803F00073002BF0D028E00D
:10169800BB690C2B23D0094B1B68084A23F08073C5
:1016A8001360FFF75FF838610CE0FFF75BF802465C
:1016B8003B69D31A022B05D9032313E0001002401B
:1016C8008C809DF9094B1B6803F00073002BECD14B
:1016D800064BDA680549064B1340CB6001E001234D
:1016E80000E0002318462037BD4680BD00100240A8
:1016F800FCFFEEFE80B584B000AF786039607B688F
:10170800002B01D10123E7E0754B1B6803F00703A9
:101718003A689A4210D9724B1B6823F00702704945
:101728003B6813430B606E4B1B6803F007033A6872
:101738009A4201D00123CFE07B681B6803F00203C3
:10174800002B10D07B689A68664B9B6803F0F00307
:101758009A4208D9634B9B6823F0F0027B689B6828
:10176800604913438B607B681B6803F00103002BFF
:101778004CD07B685B68032B07D15A4B1B6803F07E
:101788000073002B21D10123A6E07B685B68022B44
:1017980007D1544B1B6803F40033002B15D10123E8
:1017A8009AE07B685B68002B07D14E4B1B6803F0FF
:1017B8000203002B09D101238EE04A4B1B6803F476
:1017C8008063002B01D1012386E0464B9B6823F000
:1017D80003027B685B68434913438B60FEF7C2FFD3
:1017E800F8600AE0FEF7BEFF0246FB68D31A41F232
:1017F8008832934201D903236EE03A4B9B6803F089
:101808000C027B685B689B009A42EBD17B681B6883
:1018180003F00203002B10D07B689A68314B9B6859
:1018280003F0F0039A4208D22E4B9B6823F0F00293
:101838007B689B682B4913438B60294B1B6803F01B
:1018480007033A689A4210D2254B1B6823F0070217
:1018580023493B6813430B60214B1B6803F00703C4
:101868003A689A4201D0012336E07B681B6803F08E
:101878000403002B08D01B4B9B6823F4E0627B68B1
:10188800DB68184913438B607B681B6803F0080307
:10189800002B09D0134B9B6823F460527B681B69AB
:1018A800DB00104913438B6000F024F802460D4B0F
:1018B8009B681B0903F00F030B49CB5C03F01F0364
:1018C80022FA03F3094A1360094B1B681846FEF70E
:1018D800F9FE0346FB72FB7A18461037BD4680BDF9
:1018E8000020024000100240243E000800000020B2
:1018F8000400002080B489B000AF0023FB610023FE
:10190800BB613E4B9B6803F00C033B613B4BDB68C0
:1019180003F00303FB603B69002B05D03B690C2BEC
:1019280021D1FB68012B1ED1344B1B6803F008033F
:10193800002B07D1314BD3F894301B0A03F00F0367
:10194800FB6105E02D4B1B681B0903F00F03FB61CE
:101958002B4AFB6952F82330FB613B69002B0DD100
:10196800FB69BB610AE03B69042B02D1254BBB61D3
:1019780004E03B69082B01D1234BBB613B690C2B6D
:1019880034D11E4BDB6803F00303BB60BB68022B3A
:1019980003D0BB68032B03D005E01A4B7B6105E03D
:1019A800194B7B6102E0FB697B6100BF134BDB686D
:1019B8001B0903F0070301337B60104BDB681B0A2C
:1019C80003F07F037A6903FB02F27B68B2FBF3F34F
:1019D8007B610A4BDB685B0E03F0030301335B009A
:1019E8003B607A693B68B2FBF3F3BB61BB6918469D
:1019F8002437BD465DF8047B704700BF00100240E5
:101A08003C3E00080024F40000127A0080B400AFC5
:101A1800034B1B681846BD465DF8047B704700BF42
:101A28000000002080B500AFFFF7F0FF0246064B2C
:101A38009B681B0A03F007030449CB5C03F01F03F0
:101A480022FA03F3184680BD00100240343E000815
:101A580080B500AFFFF7DAFF0246064B9B68DB0A4A
:101A680003F007030449CB5C03F01F0322FA03F3D6
:101A7800184680BD00100240343E000880B586B08C
:101A880000AF786000233B612A4B9B6D03F08053C5
:101A9800002B03D0FFF7EEF9786114E0254B9B6D1E
:101AA800244A43F080539365224B9B6D03F0805387
:101AB800FB60FB68FFF7DEF978611E4B9B6D1D4AE2
:101AC80023F0805393657B69B3F5007F0BD17B6866
:101AD800802B19D97B68A02B02D902233B6113E024
:101AE80001233B6110E07B68802B02D903233B6113
:101AF8000AE07B68802B02D102233B6104E07B680B
:101B0800702B01D101233B610B4B1B6823F00702AB
:101B180009493B6913430B60074B1B6803F0070334
:101B28003A699A4201D0012300E000231846183789
:101B3800BD4680BD001002400020024080B582B042
:101B480000AF78607B68002B01D1012343E07B68FC
:101B580093F87130DBB2002B06D17B68002283F842
:101B68007020786801F022FB7B68242283F87120BA
:101B78007B681B681A687B681B6822F001021A6080
:101B8800786800F0BBFA0346012B01D1012322E05B
:101B98007B685B6A002B02D0786800F04BFE7B689C
:101BA8001B685A687B681B6822F490425A607B68FD
:101BB8001B689A687B681B6822F02A029A607B6817
:101BC8001B681A687B681B6842F001021A60786813
:101BD80000F0D2FE034618460837BD4680BD80B5E2
:101BE80088B002AFF860B9603B601346FB80002301
:101BF8007B61FB6893F87130DBB2202B76D1BB6830
:101C0800002B02D0FB88002B01D101236FE0FB6879
:101C180093F87030012B01D1022368E0FB680122A0
:101C280083F87020FB6800225A67FB68212283F83A
:101C38007120FEF797FD7861FB68FA88A3F85020B9
:101C4800FB68FA88A3F8522033E03B6800937B696D
:101C580000228021F86800F0D8FE0346002B01D04E
:101C6800032344E0FB689B68B3F5805F11D1FB68F0
:101C78001B69002B0DD1BB683B613B691A88FB6867
:101C88001B68C2F3080292B21A85BB680233BB60B4
:101C980006E0BB685A1CBA601A78FB681B681A858C
:101CA800FB68B3F852309BB2013B9AB2FB68A3F8C9
:101CB8005220FB68B3F852309BB2002BC5D13B6869
:101CC80000937B6900224021F86800F09EFE0346DD
:101CD800002B01D003230AE0FB68202283F871203F
:101CE800FB68002283F87020002300E002231846D6
:101CF8001837BD4680BD80B58AB002AFF860B960BC
:101D08003B601346FB800023FB61FB6893F872304D
:101D1800DBB2202B40F0AD80BB68002B02D0FB88E3
:101D2800002B01D10123A5E0FB6893F87030012B4B
:101D380001D102239EE0FB68012283F87020FB6832
:101D480000225A67FB68222283F87220FEF70AFDF8
:101D5800F861FB68FA88A3F85820FB68FA88A3F8AA
:101D68005A20FB689B68B3F5805F0ED1FB681B693E
:101D7800002B05D1FB6840F2FF12A3F85C2028E095
:101D8800FB68FF22A3F85C2023E0FB689B68002B1C
:101D98000DD1FB681B69002B04D1FB68FF22A3F857
:101DA8005C2016E0FB687F22A3F85C2011E0FB684A
:101DB8009B68B3F1805F0CD1FB681B69002B04D1D1
:101DC800FB687F22A3F85C2003E0FB683F22A3F8AE
:101DD8005C20FB68B3F85C307B833AE03B68009397
:101DE800FB6900222021F86800F00FFE0346002B53
:101DF80001D003233EE0FB689B68B3F5805F12D1F6
:101E0800FB681B69002B0ED1BB687B61FB681B68F4
:101E18009B8C9AB27B8B13409AB27B691A80BB6801
:101E28000233BB600CE0FB681B689B8C9BB2D9B289
:101E38007B8BDAB2BB68581CB8600A40D2B21A7001
:101E4800FB68B3F85A309BB2013B9AB2FB68A3F81F
:101E58005A20FB68B3F85A309BB2002BBED1FB68FE
:101E6800202283F87220FB68002283F87020002368
:101E780000E0022318462037BD4680BD80B586B0F5
:101E880000AF78607B681B68DB697B617B681B68D7
:101E98001B683B617B681B689B68FB607B6903F080
:101EA8000F03BB60BB68002B13D17B6903F02003D1
:101EB800002B0ED03B6903F02003002B09D07B6870
:101EC8001B6E002B00F0FC807B681B6E78689847BF
:101ED800F6E0BB68002B00F0BF80FB6803F001034D
:101EE800002B05D13B6903F49073002B00F0B480FC
:101EF8007B6903F00103002B0ED03B6903F4807368
:101F0800002B09D07B681B6801221A627B685B6F13
:101F180043F001027B685A677B6903F00203002BD8
:101F28000ED0FB6803F00103002B09D07B681B6807
:101F380002221A627B685B6F43F004027B685A676F
:101F48007B6903F00403002B0ED0FB6803F0010348
:101F5800002B09D07B681B6804221A627B685B6FC0
:101F680043F002027B685A677B6903F00803002B81
:101F780013D03B6903F02003002B04D1FB6803F066
:101F88000103002B09D07B681B6808221A627B6852
:101F98005B6F43F008027B685A677B685B6F002BB6
:101FA80000F090807B6903F02003002B0CD03B6984
:101FB80003F02003002B07D07B681B6E002B03D097
:101FC8007B681B6E786898477B685B6F03F0080333
:101FD800002B06D17B681B689B6803F04003402BED
:101FE80031D1786800F05BFD7B681B689B6803F063
:101FF8004003402B23D17B681B689A687B681B6869
:1020080022F040029A607B68DB6E002B13D07B685D
:10201800DB6E2F4A9A637B68DB6E1846FEF7DCFCA2
:102028000346002B16D07B68DB6E9B6B7A68D26EFA
:10203800104698470EE0786800F056F80AE078688D
:1020480000F052F806E0786800F04EF87B6800224D
:102058005A6737E000BF35E07B6903F48013002B33
:102068000DD0FB6803F48003002B08D07B681B6845
:102078004FF480121A62786800F062FD25E07B69EF
:1020880003F08003002B0DD03B6903F08003002B85
:1020980008D07B685B6E002B16D07B685B6E786817
:1020A800984711E07B6903F04003002B0DD03B6992
:1020B80003F04003002B08D0786800F027FD04E007
:1020C80000BF02E000BF00E000BF1837BD4680BD7A
:1020D800E92A000880B483B000AF786000BF0C37ED
:1020E800BD465DF8047B704780B483B000AF78606C
:1020F80000BF0C37BD465DF8047B70472DE9B04F33
:102108009EB000AFF86500237B67102387F8733013
:102118000023A7F862300023FB66002387F86B30A2
:1021280000237B66FB6D9A68FB6D1B691A43FB6D88
:102138005B691A43FB6DDB6913437B67FB6D1B68A7
:102148001B68A2491940FB6D1A687B6F0B4313602B
:10215800FB6D1B685B6823F44050FB6DD968FB6D11
:102168001A6840EA01035360FB6D9B697B67FB6D4E
:102178001A68974B9A4204D0FB6D1A6A7B6F134317
:102188007B67FB6D1B689B6823F43061FB6D1A68E5
:102198007B6F0B439360FB6D1A688E4B9A4225D177
:1021A8008D4BD3F8883003F00303032B1AD801A210
:1021B80052F823F0CD210008DD210008D5210008C0
:1021C800E5210008012387F8733012E1022387F81C
:1021D80073300EE1042387F873300AE1082387F887
:1021E800733006E1102387F8733002E1FB6D1A683B
:1021F8007A4B9A4238D1784BD3F8883003F00C03E5
:102208000C2B2DD801A252F823F000BF4922000858
:10221800692200086922000869220008592200087A
:102228006922000869220008692200085122000872
:102238006922000869220008692200086122000852
:10224800002387F87330D4E0022387F87330D0E096
:10225800042387F87330CCE0082387F87330C8E08C
:10226800102387F87330C4E0FB6D1A685C4B9A4200
:1022780025D1594BD3F8883003F03003302B16D0D2
:10228800302B18D8202B0AD0202B14D8002B02D0A2
:10229800102B08D00FE0002387F87330A9E0022341
:1022A80087F87330A5E0042387F87330A1E008238A
:1022B80087F873309DE0102387F8733099E0FB6D41
:1022C8001A68484B9A4225D1434BD3F8883003F01B
:1022D800C003C02B16D0C02B18D8802B0AD0802B57
:1022E80014D8002B02D0402B08D00FE0002387F829
:1022F80073307EE0022387F873307AE0042387F88E
:10230800733076E0082387F8733072E0102387F87B
:1023180073306EE0FB6D1A68334B9A422AD12E4B0C
:10232800D3F8883003F44073B3F5407F1AD0B3F57F
:10233800407F1BD8B3F5007F0CD0B3F5007F15D8CC
:10234800002B03D0B3F5807F08D00FE0002387F877
:1023580073304EE0022387F873304AE0042387F88D
:10236800733046E0082387F8733042E0102387F87B
:1023780073303EE0FB6D1A68154B9A4239D1164B03
:10238800D3F8883003F44063B3F5406F1AD0B3F53F
:10239800406F2BD8B3F5006F0CD0B3F5006F25D87C
:1023A800002B03D0B3F5806F08D01FE0002387F817
:1023B80073301EE0022387F873301AE0042387F88D
:1023C800733016E0082387F8733012E0F369FFEFE3
:1023D80000800040003801400010024000440040E6
:1023E80000480040004C004000500040102387F88F
:1023F8007330FB6D1A68BA4B9A4240F00A8197F81D
:102408007330082B23D801A252F823F0392400088E
:1024180057240008412400085724000847240008CE
:102428005724000857240008572400084F240008A0
:10243800FFF7F8FA78660EE0AA4B7B660BE0FFF729
:1024480059FA786607E04FF400437B6603E00123FE
:1024580087F86B3000BF7B6E002B00F0DE81FB6DD0
:102468005A6813465B001A447B6E934205D3FB6D92
:102478005B681A037B6E934203D9012387F86B309C
:10248800CBE197F87330082B00F2AE8001A252F826
:1024980023F000BFC1240008F12500081F2500080B
:1024A800F12500085F250008F1250008F12500083E
:1024B800F1250008B9250008FFF7B4FA0346002201
:1024C800984691464FF000024FF000034FEA092367
:1024D80043EA18634FEA0822F96D49684908002061
:1024E80039657865D7E9144521465118B9642946F4
:1024F80043EB0101F964FB6D5B6800223B647A647D
:10250800D7E91023D7E91201FDF75AFE02460B4618
:102518001346FB666CE0FB6D5B685B080022BB63DF
:10252800FA63714BD7E90E010246D3183B630B4699
:1025380043F100037B63FB6D5B680022BB62FA62B8
:10254800D7E90A23D7E90C01FDF73AFE02460B4604
:102558001346FB664CE0FFF7CDF9034600221C4604
:1025680015464FF000024FF000032B0243EA1463B4
:102578002202F96D49684908002039627862D7E972
:10258800084521465118B961294643EB0101F96113
:10259800FB6D5B6800223B617A61D7E90423D7E9C8
:1025A8000601FDF70DFE02460B461346FB661FE0CB
:1025B800FB6D5B685B0800229A4693461AF5000398
:1025C800BB604BF10003FB60FB6D5B6800223B6066
:1025D8007A60D7E90023D7E90201FDF7F1FD024649
:1025E8000B461346FB6603E0012387F86B3000BFF8
:1025F800FB6EB3F5407F08D3FB6EB3F5801F04D2A2
:10260800FB6D1B68FA6EDA6007E1012387F86B300F
:1026180003E1FB6DDB69B3F5004F40F08D8097F85F
:102628007330082B62D801A252F823F0592600080B
:102638007726000895260008F5260008B126000828
:10264800F5260008F5260008F5260008CF2600081C
:10265800FFF7E8F903465A00FB6D5B685B081A440C
:10266800FB6D5B68B2FBF3F39BB2FB6642E0FFF7DE
:10267800EFF903465A00FB6D5B685B081A44FB6D73
:102688005B68B2FBF3F39BB2FB6633E0FB6D5B6800
:102698005B0803F1F47303F59043FA6D5268B3FBDA
:1026A800F2F39BB2FB6625E0FFF724F903465A00D4
:1026B800FB6D5B685B081A44FB6D5B68B2FBF3F368
:1026C8009BB2FB6616E0FB6D5B685B0803F5803226
:1026D800FB6D5B68B2FBF3F39BB2FB660AE000BFDD
:1026E800008000400024F400000024F4012387F84F
:1026F8006B3000BFFB6E0F2B1AD9FB6EB3F5803F12
:1027080016D2FB6E9BB223F00F03A7F86230FB6E64
:102718005B089BB203F007039AB2B7F86230134321
:10272800A7F86230FB6D1B68B7F86220DA6074E0C6
:10273800012387F86B3070E097F87330082B59D86D
:1027480001A252F823F000BF75270008912700085E
:10275800AD270008FD270008C9270008FD27000845
:10276800FD270008FD270008E5270008FFF75AF9AC
:102778000246FB6D5B685B081A44FB6D5B68B2FB45
:10278800F3F39BB2FB6639E0FFF762F90246FB6D93
:102798005B685B081A44FB6D5B68B2FBF3F39BB2A2
:1027A800FB662BE0FB6D5B685B0803F5740303F5C0
:1027B8001053FA6D5268B3FBF2F39BB2FB661DE04F
:1027C800FFF798F80246FB6D5B685B081A44FB6DDF
:1027D8005B68B2FBF3F39BB2FB660FE0FB6D5B68D3
:1027E8005B0803F50042FB6D5B68B2FBF3F39BB239
:1027F800FB6603E0012387F86B3000BFFB6E0F2BED
:1028080008D9FB6EB3F5803F04D2FB6D1B68FA6EE6
:10281800DA6002E0012387F86B30FB6D00221A664C
:10282800FB6D00225A6697F86B3018467837BD461C
:10283800BDE8B08F80B483B000AF78607B685B6A16
:1028480003F00103002B0AD07B681B685B6823F444
:1028580000317B689A6A7B681B680A435A607B6808
:102868005B6A03F00203002B0AD07B681B685B6875
:1028780023F480317B68DA6A7B681B680A435A60F4
:102888007B685B6A03F00403002B0AD07B681B6833
:102898005B6823F480217B681A6B7B681B680A439A
:1028A8005A607B685B6A03F00803002B0AD07B68D8
:1028B8001B685B6823F400417B685A6B7B681B6864
:1028C8000A435A607B685B6A03F01003002B0AD046
:1028D8007B681B689B6823F480517B689A6B7B68D4
:1028E8001B680A439A607B685B6A03F02003002B2D
:1028F8000AD07B681B689B6823F400517B68DA6BFD
:102908007B681B680A439A607B685B6A03F0400334
:10291800002B1AD07B681B685B6823F480117B68E6
:102928001A6C7B681B680A435A607B681B6CB3F59A
:10293800801F0AD17B681B685B6823F4C0017B6831
:102948005A6C7B681B680A435A607B685B6A03F0B1
:102958008003002B0AD07B681B685B6823F4002186
:102968007B689A6C7B681B680A435A6000BF0C3707
:10297800BD465DF8047B704780B586B002AF7860CD
:102988000023FB607B6800225A67FDF7EBFEF860C6
:102998007B681B681B6803F00803082B0ED16FF0D7
:1029A8007E430093FB6800224FF40011786800F022
:1029B8002CF80346002B01D0032322E07B681B6818
:1029C8001B6803F00403042B0ED16FF07E430093C1
:1029D800FB6800224FF48001786800F016F803467F
:1029E800002B01D003230CE07B68202283F87120A0
:1029F8007B68202283F872207B68002283F870208D
:102A0800002318461037BD4680BD80B584B000AF9E
:102A1800F860B9603B601346FB712CE0BB69B3F109
:102A2800FF3F28D0BB69002B07D0FDF79BFE02466D
:102A38003B68D31ABA699A421DD2FB681B681A68A8
:102A4800FB681B6822F4D0721A60FB681B689A68DE
:102A5800FB681B6822F001029A60FB68202283F859
:102A68007120FB68202283F87220FB68002283F81B
:102A7800702003230FE0FB681B68DA69BB6813400A
:102A8800BA689A420CBF01230023DBB21A46FB79CD
:102A98009A42C3D0002318461037BD4680BD80B483
:102AA80083B000AF78607B681B681A687B681B6816
:102AB80022F490721A607B681B689A687B681B68AE
:102AC80022F001029A607B68202283F872207B68DA
:102AD80000221A6600BF0C37BD465DF8047B7047BC
:102AE80080B584B000AF78607B689B6AFB60FB6848
:102AF8000022A3F85A20FB680022A3F85220F868A5
:102B0800FFF7F2FA00BF1037BD4680BD80B582B02E
:102B180000AF78607B681B681A687B681B6822F0C6
:102B280040021A607B68202283F871207B680022AB
:102B38005A667868FFF7CEFA00BF0837BD4680BDF1
:102B480080B483B000AF786000BF0C37BD465DF835
:102B5800047B704780B586B000AF114BDB6C104A20
:102B680043F00203D3640E4BDB6C03F002033B60BB
:102B78003B6804237B600123BB600223FB600223C4
:102B88003B613B1D19460748FDF768FF00220421F9
:102B98000448FEF725F900BF1837BD4680BD00BFC1
:102BA800001002400004004880B582B000AF034620
:102BB800FB710420FDF7F4FEFB79034A136000BFA4
:102BC8000837BD4680BD00BF8C00002080B489B0A6
:102BD80000AF78600023BB61194B5B687B61194BC0
:102BE8001A687B6802FB03F33B61154B9B68FB612A
:102BF800134B9B68FB60FA68FB699A42F8D0FA6845
:102C0800FB699A4206D2FA69FB68D31ABA69134477
:102C1800BB6107E07A69FB68D21AFB691344BA6999
:102C28001344BB61FB68FB61BA693B699A4200D2F5
:102C3800DEE700BF00BF2437BD465DF8047B704760
:102C480010E000E08C00002080B584B000AF03469F
:102C5800FB800023FB6006E04FF47A70FFF7B6FFB5
:102C6800FB680133FB60FB88FA689A42F4D300BF23
:102C780000BF1037BD4680BD80B588B000AF244B7B
:102C8800DB6C234A43F00403D364214BDB6C03F071
:102C98000403BB60BB681E4BDB6C1D4A43F0080392
:102CA800D3641B4BDB6C03F008037B607B684FF439
:102CB800E063FB604FF404133B6101237B6107F180
:102CC8000C0319461348FDF7C9FE4FF40053FB6087
:102CD8004FF488133B6102237B6107F10C0319460B
:102CE8000D48FDF7BBFE002202211720FDF721FE4B
:102CF8001720FDF73AFE012202212820FDF719FED0
:102D08002820FDF732FE00BF2037BD4680BD00BF3A
:102D180000100240000C00480008004880B500AFD1
:102D28004FF48070FEF78EF84FF40070FEF78AF8C3
:102D380000BF80BD80B500AF4FF48060FEF782F819
:102D48004FF40050FEF77EF800BF80BD80B582B01A
:102D580000AF0346FB803220FFF776FFFB88B3F510
:102D6800005F0FD0B3F5005F42DCB3F5806F32D05F
:102D7800B3F5806F3CDCB3F5807F10D0B3F5007FEE
:102D88001BD035E04FF400512048FEF711F80346F8
:102D9800012B2FD104211E48FEF73AF82AE04FF400
:102DA80080711C48FEF704F80346002B24D14FF429
:102DB80000711948FEF72CF81EE04FF40071154811
:102DC800FDF7F6FF0346002B18D14FF48071124827
:102DD800FEF71EF812E04FF480610E48FDF7E8FF99
:102DE8000346002B0CD180210B48FEF711F807E0B1
:102DF80000BF06E000BF04E000BF02E000BF00E043
:102E080000BF00BF0837BD4680BD00BF00080048AE
:102E180000040048000C00480010004880B588B045
:102E280000AF1D4BDB6C1C4A43F00403D3641A4B00
:102E3800DB6C03F00403BB60BB68174BDB6C164A02
:102E480043F00803D364144BDB6C03F008037B6086
:102E58007B684FF4E063FB6000233B6102237B61E6
:102E68000323BB6107F10C0319460C48FDF7F6FD77
:102E78004FF40053FB6000233B6101237B61032374
:102E8800BB6107F10C0319460548FDF7E7FD00BFD4
:102E98002037BD4680BD00BF00100240000C00482E
:102EA8000008004880B586B000AF124BDB6C114AB1
:102EB80043F01003D3640F4BDB6C03F010033B604B
:102EC8003B684FF460737B600123BB600123FB60A8
:102ED80002233B613B1D19460748FDF7BFFD012250
:102EE8004FF460710448FDF77BFF00BF1837BD46FB
:102EF80080BD00BF001002400010004880B582B0BD
:102F080000AF7860074A7B681360074B1B689868B6
:102F180000230222002100F009FB00BF0837BD464C
:102F280080BD00BF900000201800002080B582B04E
:102F380000AF78607B68002B04DB7B68022B01DC28
:102F4800012305E000F0CCFC034609221A600023A7
:102F580018460837BD4680BD80B586B000AFF8601A
:102F6800B9607A60FB68012B02D0FB68022B11D193
:102F78000E4B18687B689AB24FF0FF33B968FEF7BA
:102F88002EFE0346FB75FB7D002B01D17B6808E014
:102F9800052306E000F0A4FC034609221A604FF05E
:102FA800FF3318461837BD4680BD00BF900000208B
:102FB80080B582B000AF78607B68002B04DB7B684B
:102FC800022B01DC002306E000F08AFC03460922FC
:102FD8001A604FF0FF3318460837BD4680BD80B5EC
:102FE80084B000AFF860B9607A6000F079FC0346FD
:102FF80009221A604FF0FF3318461037BD4680BDCE
:1030080080B586B000AFF860B9607A60FB68002BC5
:1030180010D10E4B18684FF0FF330122B968FEF744
:103028006AFE0346FB75FB7D002B01D1012308E0F6
:10303800052306E000F054FC034609221A604FF00D
:10304800FF3318461837BD4680BD00BF90000020EA
:1030580080B582B000AF786039607B68002B08DBF0
:103068007B68022B05DC3B684FF400525A60002352
:1030780005E000F035FC034609221A6000231846D3
:103088000837BD4680BD000080B598B000AF00236A
:1030980087F85F302A4B9B6D294A43F0805393652C
:1030A800274B9B6D03F080533B603B680123BB615A
:1030B8004FF48033FB6102233B6403237B640123C9
:1030C800BB641423FB6407233B6502237B6502234F
:1030D800BB6507F118031846FDF730FF034687F86C
:1030E8005F3097F85F30002B01D000BFFDE70F235A
:1030F8007B600323BB600023FB6000233B6100234C
:103108007B613B1D04211846FEF7F4FA034687F855
:103118005F3097F85F30002B01D000BFFDE74FF418
:103128000070FDF7B5FE034687F85F3097F85F300B
:10313800002B01D000BFFDE700BF6037BD4680BD52
:103148000010024080B582B000AF7860154B164A77
:103158001A60144A7B685360124B00229A60114B24
:103168000022DA600F4B00221A610E4B00229A618E
:103178000C4B0C225A610B48FEF7E0FC094B1B680C
:103188001A68084B1B6842F020021A602520FDF7D8
:10319800ECFB032203212520FDF7CBFB00BF0837FA
:1031A800BD4680BD600100200038014080B58AB06E
:1031B80000AF78607B681B681D4A934233D11D4B72
:1031C800DB6C1C4A43F00103D3641A4BDB6C03F03D
:1031D80001033B613B69174B1B6E164A43F480435E
:1031E8001366144B1B6E03F48043FB60FB684FF4BB
:1031F80000737B610223BB610123FB6102233B62F5
:1032080007237B6207F1140319464FF09040FDF73E
:1032180025FC4FF480637B6107F1140319464FF0D6
:103228009040FDF71BFC00BF2837BD4680BD00BF9E
:10323800003801400010024080B582B000AF284B32
:103248001B68DB6903F02003202B41D1F91D4FF4E3
:103258007A7301222248FEF74EFD224B1B881BB2CF
:10326800002B35DB1F4B1B8803F48043002B10D049
:10327800FB790A2B03D01B4B00221A8028E0194B3C
:103288001B886FEA43436FEA53439AB2154B1A807F
:103298001EE0FB790D2B07D1124B1B8843F48043AA
:1032A8009AB2104B1A8013E00E4B1B88C3F30D0320
:1032B800F9790D4AD1540B4B1B8801339AB2094B4B
:1032C8001A80084B1B88C72B02D9064B00221A808C
:1032D8000348FEF7D3FD00BF0837BD4680BD00BFD9
:1032E800600100205C01002094000020002310B53C
:1032F8000446C0E90033C0E9043383608181436632
:10330800C2818361194608225C3000F09BFA0D4B9C
:1033180063620D4BA3620D4BE3620D4B23630D4BB0
:1033280024629C4206D003F16802944202D0D03352
:103338009C4205D104F15800BDE8104000F0FABAEB
:1033480010BD00BF9D360008BF360008F7360008DC
:103358001B370008D8010020024A0349034800F03F
:1033680069B800BF0C0000204D3C00081C0000207C
:1033780041680C4B994210B5044601D000F062FC3C
:10338800A168094B994202D0204600F05BFCE16835
:10339800064B994204D02046BDE8104000F052BCCC
:1033A80010BD00BFD801002040020020A802002064
:1033B80010B50B4B0B4C0C4A1A6020460022042116
:1033C800FFF794FF04F1680001220921FFF78EFF3F
:1033D80004F1D0000222BDE810401221FFF786BF99
:1033E80010030020D801002061330008014800F0D4
:1033F800A2BA00BF19030020014800F09DBA00BF1F
:103408001903002010B50446FFF7F0FF236A1BB12B
:10341800BDE81040FFF7F0BF044B2362044B1B6864
:10342800002BF5D1FFF7C4FFF2E700BF793300089E
:10343800100300202DE9F843074688461446002665
:10344800D4E90195B9F1010905D52468002CF7D113
:103458003046BDE8F883AB89012B07D9B5F90E30A2
:10346800013303D029463846C04706436835E9E7A3
:10347800036A70B5846805460E460BB9FFF7C2FFAC
:10348800636EDB0705D4A389980502D4A06D00F00C
:1034980052FAA389190702D52369002B35D1214691
:1034A800284600F079F980B34FF0FF35636EDA07EC
:1034B80005D4A3899B0502D4A06D00F03DFA2846E7
:1034C80070BD002B04DAA2699A4217DC0A2915D0CC
:1034D80023685A1C22601970A36816F8011F013B63
:1034E800A3600029EDD1002B11DA22460A212846D3
:1034F80000F013F90130D7D00A25D7E7224628462D
:1035080000F00BF90130E7D1CEE7013EE4E723688C
:103518005A1C22600A221A70EEE70000024B01468C
:103528001868FFF7A5BF00BF180000202DE9F74372
:103538001D46574B1F6804460E46904627B13B6A06
:1035480013B93846FFF75EFFB8F1020F06D0B8F19D
:10355800010F00F29A80002DC0F29780636ED907A0
:1035680005D4A3899A0502D4A06D00F0E4F9214698
:10357800384600F067FB616B41B104F1440399429E
:1035880002D0384600F0DAF9002363630023A36110
:103598006360A3891B0603D52169384600F0CEF97C
:1035A800A38923F44A6323F00303B8F1020FA3812C
:1035B80061D001AB6A462146384600F06BFBA3890F
:1035C8001843A0812DBB009D284600F001FA06464D
:1035D800002852D1DDF80090A94540D14FF0FF35C1
:1035E800B4F90C3043F00202A2810022A26004F177
:1035F80047022260226101226261626ED60704D40A
:10360800980502D4A06D00F097F9284603B0BDE8EC
:10361800F083002ED8D03B6A13B93846FFF7F2FE84
:10362800B8F1010F08BFA389266004BF43F0010366
:10363800A381B4F90C3013F00802C4E904651ED064
:10364800D90741BF00226D42A260A56158BFA5609D
:10365800626ED20701D49B0513D50025D5E74846ED
:1036680000F0B6F906460028B8D0A38943F08003D5
:10367800A3814D46CFE70025B2E7A946F5E7A2604A
:10368800E6E7A06D00F058F9E7E74FF0FF35BCE733
:103698001800002010B50C46B1F90E1000F0FCF827
:1036A8000028ABBF636DA3891B1823F48053ACBFFC
:1036B8006365A38110BD2DE9F0411F468B89DB05A9
:1036C80005460C46164605D5B1F90E100223002210
:1036D80000F0D0F8A389B4F90E1023F48053A38125
:1036E80032463B462846BDE8F04100F0E7B810B541
:1036F8000C46B1F90E1000F0BDF8431CA38915BFA4
:10370800606523F4805343F48053A38118BFA381D9
:1037180010BDB1F90E1000F09DB8F8B50E4614466C
:10372800054618B1036A0BB9FFF76CFEA369A360DD
:10373800A3891A0701D5236943B92146284600F011
:103748002BF818B14FF0FF373846F8BD23682269C7
:10375800981A6369F6B28342374605DC2146284643
:1037680000F070FA0028EDD1A368013BA36023683C
:103778005A1C22601E706269431C9A4204D0A389B5
:10378800DB07E1D50A2EDFD12146284600F05AFA98
:103798000028D9D0D6E7000038B5294B0546186867
:1037A8000C4618B1036A0BB9FFF72CFEB4F90C30BC
:1037B800190722D4DA0607D409222A6043F0400305
:1037C800A3814FF0FF3033E0580712D5616B41B148
:1037D80004F14403994202D0284600F0AFF80023D0
:1037E8006363A38923F02403A3810023636023690F
:1037F8002360A38943F00803A38123694BB9A389F4
:1038080003F42073B3F5007F03D02146284600F067
:1038180067FAB4F90C3013F001020AD00022A26052
:1038280062695242A261226942B913F08000C5D18F
:1038380038BD990758BF6269A260F4E70020F7E72E
:103848001800002002440346934200D1704703F851
:10385800011BF9E738B5064D0023044608462B60DE
:10386800FFF7A6FB431C02D12B6803B1236038BDC8
:103878001403002038B5074D0446084611460022B7
:103888002A601A46FFF7ABFB431C02D12B6803B131
:10389800236038BD1403002038B5074D0446084698
:1038A800114600222A601A46FFF7AAFB431C02D1E0
:1038B8002B6803B1236038BD1403002038B5074DC9
:1038C80004460846114600222A601A46FFF744FBC0
:1038D800431C02D12B6803B1236038BD14030020B8
:1038E800014B1868704700BF1800002070B50D4DD7
:1038F8000D4C641BA4100026A64209D10B4D0C4C9C
:1039080000F05CFA641BA4100026A64205D170BD25
:1039180055F8043B98470136EEE755F8043B9847BD
:103928000136F2E7743E0008743E0008743E000851
:10393800783E0008704770477047000038B5054664
:10394800002941D051F8043C0C1F002BB8BFE418E3
:1039580000F0E8F81D4A136833B96360146028461C
:10396800BDE8384000F0E4B8A34208D9206821181F
:103978008B4201BF19685B6809182160EDE71A4698
:103988005B680BB1A342FAD911685018A0420BD159
:1039980020680144501883421160E0D118685B68C0
:1039A800536008441060DAE702D90C232B60D6E78D
:1039B800206821188B4204BF19685B68636004BFE4
:1039C800091821605460CAE738BD00BF20030020F1
:1039D800024B0146186800F025B800BF1800002007
:1039E80070B50F4E0C463168054611B900F0D6F98E
:1039F80030602146284600F0D1F9431C03D14FF02E
:103A0800FF34204670BDC41C24F00304A042F8D043
:103A1800211A284600F0C2F90130F2D1EFE700BFC1
:103A28001C0300202DE9F843CD1C25F003050835BB
:103A38000C2D38BF0C25002D064601DBA94204D900
:103A48000C2333600020BDE8F883DFF8D48000F051
:103A580069F8D8F800301C4644BB29463046FFF7C1
:103A6800BFFF431C044658D1D8F800402746002F12
:103A780043D1002C4BD023683946304604EB030968
:103A880000F08CF9814542D121686D1A29463046EB
:103A9800FFF7A6FF01303AD023682B442360D8F8FB
:103AA80000305A6862BBC8F800700FE02268521BE9
:103AB80020D40B2A17D96119A342256018BF596071
:103AC800636808BFC8F8001062514B60304600F0C8
:103AD8002FF804F10B00231D20F00700C21A1CBFA9
:103AE8001B1AA350AFE76268A3420CBFC8F80020B6
:103AF8005A60EBE723466468AEE73C467F68B6E762
:103B08001A465B68A342FBD100235360DEE70C230F
:103B18003360304600F00CF894E70560D6E700BF44
:103B2800200300200148FFF706BF00BF180300204C
:103B38000148FFF701BF00BF18030020B1F90C20AE
:103B48002DE9F041160705460C4654D44B68002B66
:103B580002DC0B6C002B48DDE66A002E45D0002302
:103B680012F480522F68216A2B6030D0626DA389CD
:103B7800590705D56368D21A636B0BB1236CD21A47
:103B88000023E66A216A2846B047431CA38906D168
:103B980029681D292BD82A4A0A41D60727D400228A
:103BA8006260D9042269226004D5421C01D12B68C5
:103BB80003B96065616B2F60B9B104F144039942A0
:103BC80002D02846FFF7BAFE002363630DE0012305
:103BD8002846B0470246501CC9D12B68002BC6D0D6
:103BE8001D2B01D0162B1ED12F60002022E043F0A0
:103BF80040031BB21BE00F69002FF6D093070E6835
:103C080008BF4B690F6018BF0023A6EB07088B603D
:103C1800B8F1000FE9DD216AA66A43463A4628460C
:103C2800B047002808DCB4F90C3043F04003A38106
:103C38004FF0FF30BDE8F0810744A8EB0008E7E744
:103C4800FEFFBFDF38B50B6905460C4613B90025E2
:103C5800284638BD18B1036A0BB9FFF7D3FBB4F98E
:103C68000C30002BF3D0626ED00704D4990502D42F
:103C7800A06DFFF760FE28462146FFF75FFF636EE1
:103C8800DA070546E4D4A3899B05E1D4A06DFFF7C4
:103C980053FEDDE770B50C46B1F90E10002996B059
:103CA80015461E460DDAA38913F0800F4FF0000168
:103CB80014BF40234FF48063002031602B6016B09E
:103CC80070BD6A4600F048F80028ECDB019901F461
:103CD8007041A1F50053594259414FF48063EBE715
:103CE8008B89F7B59D0706460C4607D504F14703AF
:103CF800236023610123636103B0F0BD01AB6A4611
:103D0800FFF7C8FF009F054639463046FFF78AFE91
:103D180048B9B4F90C309A05EED423F0030343F004
:103D28000203A381E2E7A389206043F08003A38113
:103D3800019BC4E904075BB1B4F90E10304600F0EA
:103D48001DF828B1A38923F0030343F00103A381DD
:103D5800A3891D43A581CFE738B5074D0023044645
:103D6800084611462B60FFF773F9431C02D12B68F4
:103D780003B1236038BD00BF1403002038B5064DD9
:103D88000023044608462B60FFF7D0F8431C02D1F5
:103D98002B6803B1236038BD1403002038B5064DE5
:103DA8000023044608462B60FCF702FC431C02D1A2
:103DB8002B6803B1236038BD14030020F8B500BF99
:103DC800F8BC08BC9E467047F8B500BFF8BC08BCF4
:043DD8009E4670474C
:103DDC004F4B0D000D0A20796F7572206461746170
:103DEC003A0D00000D0A0D000D0A414C49454E5488
:103DFC00454B20686568650D0000000070726573A6
:103E0C007320656E74657220746F20636F6E7469B5
:103E1C006E75650D00000000000000000000000041
:103E2C000102030406070809000000000102030454
:103E3C00A0860100400D0300801A060000350C001E
:103E4C0040420F0080841E0000093D0000127A00E1
:103E5C000024F40000366E010048E801006CDC021E
:083E6C008CC3FF7F0100000080
:043E7400AD01000894
:043E780089010008B4
:103E7C0000093D00100000000100000000000000DF
:103E8C0003000000D80100201C00002000000000EE
:103E9C00D801002040020020A802002000000000F1
:103EAC000000000000000000000000000000000006
:103EBC0000000000000000000000000000000000F6
:103ECC0000000000000000000000000000000000E6
:083EDC000000000000000000DE
:0400000508000649A0
:00000001FF
